:020000040800F2
:100000009825002045010008DB260008BB200008D9
:10001000D92600080D200008352E00080000000039
:100020000000000000000000000000004D2B000850
:100030000F200008000000003D2A0008452C0008A1
:100040005F0100085F0100085F0100085F01000810
:100050005F0100085F0100085F0100085F01000800
:100060005F0100085F0100085F0100085F010008F0
:100070005F0100085F0100085F0100085F010008E0
:100080005F0100085F0100085F0100085F010008D0
:100090005F0100085F0100085F0100085F010008C0
:1000A0005F0100085F0100085F0100085F010008B0
:1000B0005F0100085F0100085F0100085F010008A0
:1000C0005F0100085F0100085F0100085F01000890
:1000D0005F010008992C00085F0100085F0100081B
:1000E0005F0100085F0100085F0100085F01000870
:1000F0005F0100085F0100085F0100085F01000860
:100100005F0100085F0100085F0100085F0100084F
:100110005F0100085F0100085F0100085F0100083F
:100120005F0100085F0100085F0100085F0100082F
:10013000DFF80CD000F086FB00480047F92E0008DD
:10014000982500200648804706480047FEE7FEE75E
:10015000FEE7FEE7FEE7FEE7FEE7FEE7FEE7FEE777
:10016000492C00083101000800220C4B70B51C68B6
:100170004EF6612613460A490A802589AD0704D543
:100180004AB9207300BF00BF70BD01339BB2B342B8
:100190004FF00102F1D10B80F3E700BF8C05002086
:1001A00090050020002330B54EF66125144A154C09
:1001B000126823801189090603D4118901F4C05102
:1001C00019B101339BB2AB42F4D1138913F041034F
:1001D0000BD119464EF66125107323801089C00794
:1001E00005D553B99089C0B230BD9389EDE701318F
:1001F00089B2A9424FF00103F0D12180F2E700BF9C
:100200008C0500209005002010B5002002F030F889
:100210000420FFF7A9FF0020FFF7C4FF04460120D8
:1002200002F026F8204610BD10B50446002002F06A
:100230001FF80120FFF798FF2046FFF7B3FFBDE846
:100240001040012002F014B8F8B506460124B4406D
:10025000E443FFF7D9FF64B204EA0003DBB298423B
:1002600005461CD04FF47A76FFF7CEFFA84207462A
:1002700007D0013E0220B6B202F00EF83D46002E35
:10028000F2D104EA0500C0B2854208D000F0FB00BC
:10029000FFF7CAFFBDE8F8400A2001F0FDBFF8BD36
:1002A0002DE9F04106460124FFF7AEFFB44064B2E9
:1002B00044EA0003DBB29842074603D1022E01D084
:1002C000052E23D14FF47A75FFF79EFFB842804682
:1002D00007D0013D0220ADB201F0DEFF4746002D00
:1002E000F2D144EA0700C0B2874206D1022E06D0FE
:1002F000052E0BD100F0FB0001E0022EFAD1FFF732
:1003000093FFBDE8F0410A2001F0C6BFBDE8F081CF
:1003100070B5064671B3202928BF202100200C4665
:1003200001F0A6FF0220FFF71FFF0020FFF71CFFD0
:10033000354615F8010BFFF717FFAB1BDBB29C42EC
:10034000F7D800220C4B4EF661251C6813460B496A
:100350000A802089000605D452B9BDE8704001200A
:1003600001F086BF01339BB2AB424FF00102F0D1E6
:100370000B80F2E770BD00BF8C05002090050020C7
:1003800038B5044646F2A815FFF73EFFFF2801D016
:10039000C3070FD4022001F07FFF681E85B2002D35
:1003A000F2D14CB1FFF730FF000240F01000208086
:1003B000284638BD0120FCE72046FAE738B5044658
:1003C00046F2A815FFF720FFFF2801D083070DD5BF
:1003D000022001F061FF013DF4D14CB1FFF714FFA1
:1003E000000240F011002080284638BD0120FCE7C3
:1003F0002046FAE7202928BF202170B506460020B4
:100400000D4601F035FF0320FFF7AEFE0020FFF799
:10041000C9FE3446A31BDBB2AB4204D3012001F07A
:1004200027FF284670BD0020FFF7BCFE04F8010B33
:10043000F0E700231B68FFDE70B500242646114D4F
:10044000E2B2AB5C533B012B98BFAE54835C533B91
:10045000012B98BF8654A956835641B11BB19942CE
:1004600004F10104ECD0994204DD012007E0002BE7
:10047000FBDB05D08B42D4BF01204FF0FF3070BDB5
:100480001846FCE73000002010B50C46FFF7D4FFFB
:10049000002808DA2CB1FFF7B7FE000240F0770021
:1004A0002080012000E0002010BD2DE9F843089CC9
:1004B0000546904699460778FFF72AFF0A2001F083
:1004C000EBFE4FF6FF7608F1FF381FFA88F8B045CB
:1004D00006D12046FFF772FF78B90020BDE8F88307
:1004E000FA2001F0D9FEFA2001F0D6FEFA2001F040
:1004F000D3FEFA2001F0D0FEE5E74FF47A764CF215
:10050000503306FB09F6B6FBF3F64FF0000901364F
:100510001FFA89F39E42E0D946F2A818FFF774FE4D
:100520008038C0B27E2821D80CB10023238020213E
:100530002846FFF75FFF0A2001F0AEFE0720FFF715
:1005400083FE00231A466978481C5E1C9BB29842C1
:1005500025DA29448B78934226D0002CBDD0FFF7B2
:1005600053FE000240F030002080B6E708F1FF386B
:1005700002201FFA88F801F08FFEB8F1000FCDD1EC
:1005800054B1FFF741FE00022080022001F084FEFA
:10059000238843F01603238009F10109B8E7EB5CD7
:1005A0001A44D2B23346D0E72B7823F08003BB4203
:1005B0000BD0362F01D1252B07D0002C8DD0FFF783
:1005C00023FE000240F03100CEE700211148FFF782
:1005D0005BFFE8B9AB78782B1AD1002C3FF47DAFE4
:1005E000FFF712FE000280B22080EB78032B0CD8BC
:1005F000DFE803F00E02050840F04500B4E740F0E4
:100600004600B1E740F04700AEE740F04800ABE7F6
:10061000012063E7F230000830B504468FB00D4684
:1006200009B100230B802846FFF7AAFE00283BD023
:100630000720FFF709FE0120FFF732FE42238DF865
:100640001830002319488DF81A4006ACE218195CDE
:100650000133102BD170F9D1154A03AB10685168E2
:10066000127A03C31A70002303A88DF81530E2181C
:10067000C15C01330A2BD174F9D11B2300228DF800
:1006800019301346A15C01320B441D2ADBB2F9D1AB
:100690008DF83530002300951A461E212046FFF7BD
:1006A00004FF003018BF01200FB030BD92300008A9
:1006B000883000081FB50023044602930393029B71
:1006C000A34208D34120FFF7AFFD0A2001F0E4FD6B
:1006D000039804B010BD029B03F0DA0343F001035A
:1006E0008DF806309DF80600FFF79EFD0A2001F008
:1006F000D3FDFFF789FD8DF805009DF805209DF8D5
:1007000006309A42039B0BBF0133DBB203938DF893
:100710000730029B01330293D1E71FB502930023F8
:10072000CDE9003300F0A0F805B05DF804FB2DE939
:10073000FF410B9C05460E460B482146174698463E
:10074000FFF7A2FE68B9BDF828300294CDE9008316
:100750003A4601233146284600F086F804B0BDE849
:10076000F0810020FAE700BFEA3000082DE9FF41E0
:100770000B9C05460E46174698460CB10023238075
:1007800021460A48FFF780FE68B9BDF82830029478
:10079000CDE900833A4601233146284600F064F84B
:1007A00004B0BDE8F0810020FAE700BFA2300008E5
:1007B00070B505468AB00E4614460AB10023138070
:1007C0002046FFF7DDFDD8B10720FFF73DFD0120F2
:1007D000FFF766FD40F21623ADF8083000238DF8D0
:1007E0000B6018368DF80A50009435441A460521DE
:1007F00002A88DF80C50FFF758FE003018BF0120FA
:100800000AB070BDD2B201E000F8012B491EFBD244
:1008100070470022F6E710B513460A46044619460B
:10082000FFF7F0FF204610BD10B5002200E0521C7B
:10083000835C8C5CA34201D1002BF8D1D8B2E1B229
:10084000401A10BD064C074D06E0E06840F0010379
:1008500094E8070098471034AC42F6D3FFF76CFCDD
:1008600010310008303100082DE9F04F91B01C9C88
:100870000DF1100802900E469346002110224046CA
:1008800099461A9FBDF86C50FFF7C5FF0CB10023C5
:10089000238026B90025284611B0BDE8F08FB9F1B4
:1008A000010F13D1A548FFF7C7FD00283ADA00234E
:1008B000F9569AB208F8031019B10133102BF7D189
:1008C0001A4610AB1A44002302F8303C2046FFF7CA
:1008D00057FD80BB00250220FFF7E2FC022001F05B
:1008E000DBFC0724FFF790FCFF2801D0430709D465
:1008F000013C0220A4B201F0CFFC002CF2D1022076
:10090000FFF7CEFCB542C6D3B6F5807FC3D8F92E2B
:1009100000F21181142001F0BFFCF043C0B201F0DD
:10092000BBFCB8E7234614223946404601F092F852
:100930000028CBD1AEE7FFF767FC00F07B0343F064
:100940000203984282461AD04FF47A77FFF75CFC94
:100950005045039008D0022001F09EFC7B1E039AB4
:100960009FB29246002FF1D10AF07B0040F00200C6
:10097000504504D0FFF758FC0A2001F08DFC4FF4DD
:100980008063B9F1010FADF820304FEA16238DF8DE
:1009900023308DF822B08DF824604FF0000332D060
:1009A0008DF8253000210A469DF8210001308BB2D8
:1009B000984210AD01F101012B4445DA03F8202CD7
:1009C00000239DF82110009403311A46C9B208A8EB
:1009D000FFF76BFD00283FF47DAF9DF82250002DFE
:1009E00000F087801CB1FFF70FFC000220809DF80B
:1009F0002230F63B092B75D8DFE803F06D665F58AF
:100A0000514A433C342B8DF8259018F903109AB2C3
:100A100079B90020931D9BB208A99AB2152A10D962
:100A20002B0A8DF8363016238DF837508DF821308B
:100A3000B8E708AA1A440133102B9171E5D11A4680
:100A4000E7E758540133E8E713F8203C1A44D2B2E0
:100A5000ADE71CB1238843F012032380C82001F0C6
:100A60001BFC37E7002C3FF435AF238843F013031A
:100A700023802FE7002C3FF42DAF238843F014038D
:100A8000F6E7002C3FF426AF238843F01503EFE789
:100A9000002C3FF41FAF238843F01803E8E7002C35
:100AA0003FF418AF238843F01903E1E7002C3FF42B
:100AB00011AF238843F01A03DAE7002C3FF40AAFA2
:100AC000238843F01B03D3E7002C3FF403AF2388B4
:100AD00043F01C03CCE7002C3FF4FCAE238843F02A
:100AE0001D03C5E7002C3FF4F5AE238843F01F0338
:100AF000BEE70B2001F0D0FBB542BFF4ECAEA6EB95
:100B00000508B8F1200FC8BF4FF02008029BD8BFDE
:100B10001FFA88F858195FFA88F1FFF7F9FB0B20E4
:100B200001F0BAFB2046FFF749FC00283FF4D3AEA2
:100B30004544ADB2E0E70A20F1E600BFAA30000864
:100B40002DE9F04716468AB00746DDE9125A884675
:100B50002022002102A89946149CFFF75CFE0EB1EA
:100B6000002333700CB1002323802046FFF708FCDC
:100B700018B900200AB0BDE8F0870720FFF764FB32
:100B80000120FFF78DFB40F22F23ADF80830002342
:100B90008DF80B8008F131088DF80A7000944744F5
:100BA0001A46052102A88DF80C70FFF77EFC00287C
:100BB000DFD09DF80C30ABB1002CDAD0FFF724FB6E
:100BC0009DF80C30000280B2FF2B208003D140F052
:100BD0005A002080CDE7FE2B0CBF40F05B0040F0B8
:100BE0003500F6E716B19DF80D3033705DB19DF814
:100BF0000E302B709DF80F306B709DF81030AB707D
:100C00009DF81130EB70BAF1000F07D09DF812205B
:100C10009DF8133003EB0223AAF80030B9F1000F5E
:100C200003D09DF8143089F800300120A2E72DE9A7
:100C3000F0418EB0149C05460F46164698460CB1FE
:100C40000023238000230294CDE900330DF1170225
:100C50000DF11601384600F0ABFC002879D09DF864
:100C60001630022B6ED853B19DF81720002A69D098
:100C70003DB9012B55D1062A03D1572563E0002D3C
:100C8000FBD02046FFF77CFB002862D00720FFF74F
:100C9000DBFA0120FFF704FB002D0CBF1A231923F8
:100CA0008DF8183001238DF81A708DF81930A6B11F
:100CB00033788DF820808DF81B3073788DF81C30D8
:100CC000B3788DF81D30F3788DF81E304FEA182375
:100CD0008DF81F3007238DF81930002211469DF83A
:100CE000190001300B460EAD01319842C9B22B44B8
:100CF00031DA03F8202C002300941A4606A8FFF7E7
:100D0000D4FB30B39DF81A3053B3F42B28D004B37E
:100D1000FFF77AFA9DF81A30C3F1800343EA002006
:100D200016E00EAA02F8205D2B46CDE9015400958D
:100D300029463846FFF704FFB0B19DF81830002B64
:100D40009FD19AE7542524B1FFF75EFA45EA0020C7
:100D50002080002008E013F8203C1A44D2B2C1E7FA
:100D60009DF816301BB901200EB0BDE8F0810824B3
:100D7000FA20013C01F090FA14F0FF04F8D1F2E7F8
:100D80002DE9F0438BB0129C8146884617461E46DB
:100D90000CB10023238021462A48FFF775FB054646
:100DA00020B1002528460BB0BDE8F0832046FFF7B0
:100DB000E7FA0028F5D00720FFF746FA0120FFF7F1
:100DC0006FFA2D238DF80830F31C8DF809302B466F
:100DD0008DF80C608DF80A908DF80B80B6B29AB23F
:100DE000B24222D3002319469DF8090001308AB28D
:100DF00082420AAE01F1010132441CDD02F8203CBE
:100E0000002300941A46C9B202A8FFF74EFB00283F
:100E1000C8D09DF80A309BB1002CC3D0FFF7F4F97D
:100E2000000240F041002080BCE7F95C02AA1A44AD
:100E300051710133D3E712F8202C1344DBB2D6E70B
:100E40000125AFE7EA3000082DE9F04F8DB082466A
:100E50000E46169F189C98460BB193F800900CB163
:100E6000002323804FF47A7B00250BFB02FB4FEA23
:100E70005B0B5D4512D1002C00F01681FFF7C4F921
:100E8000000240F0100020800025B8F1000F01D0D2
:100E900088F8009028460DB0BDE8F08F00F05DFBAB
:100EA00020B9022001F0F8F90135E2E7FFF7ACF9CB
:100EB00000F05F0343F00203984283461AD04FF4D8
:100EC0007A75FFF7A1F95845039008D0022001F088
:100ED000E3F96B1E039A9DB29346002DF1D10BF0FE
:100EE0005F0040F00200834504D0FFF79DF90A201F
:100EF00001F0D2F940F20123F2B2ADF810308DF8D2
:100F00001320330A03328DF8123013448DF8143055
:100F1000002300941A46052104A8FFF7C6FA00280A
:100F2000B2D09DF812300BB31CB1FFF76DF900027F
:100F300020809DF81230FE2B13D009D8FD2B20D035
:100F4000002C00F0B180238843F02F0323809BE71F
:100F50001CB1238843F022032380C82001F09CF9B0
:100F600092E71CB1238843F0230323809DF81420CB
:100F70009DF8153003EB02239BB29E4201D31E461F
:100F800007E034B1238813F0FF0F02D143F02403AC
:100F9000238046489DF81390FFF74EFA0028179BD0
:100FA00043DD3BB19DF81B209DF81A3003EB022373
:100FB000179A13805FB19DF81E303B709DF81F306B
:100FC0007B709DF82030BB709DF82130FB700027AE
:100FD0000520FFF739F90A2001F05EF93D46B542D8
:100FE000BFF453AF0520FFF75BF9012001F054F97E
:100FF00046F2A81BFFF708F908B1820620D50220A7
:1010000001F04AF9BBF1010BF4D12CB1FFF7FCF868
:10101000000240F02000208097B90520FFF714F966
:10102000052001F039F90127D9E713B10023179AF8
:101030001380002FCBD000233B707B70BB70C5E7C3
:10104000711B2029A8BF202111F0FF0104D00AEB59
:101050000500FFF7CFF90146294401208DB201F0C8
:101060001BF9FFF7D1F8FF281CD010F04007B6D0CD
:10107000AE427FF60AAF761B202E3FF706AFFFF792
:10108000C3F800283FF401AF83063FF5FEAE16F02B
:10109000FF0004D001460AEB0500FFF7ABF9054459
:1010A000ADB2F2E600279AE72546EEE6BA30000830
:1010B0002DE9F0438BB0139C07460E469046002165
:1010C000202202A81D46FFF7A6FB0CB100232380B7
:1010D00021463348FFF7D8F9814620B1002528463C
:1010E0000BB0BDE8F0832046FFF74AF90028F5D0A1
:1010F0000720FFF7A9F80120FFF7D2F81B2D2B4698
:1011000028BF1B239A1C8DF809209DF848208DF8D4
:1011100008708DF80A204A468DF80B609BB291B298
:101120008B4207D902A9114418F8020001321B2A88
:101130000871F4D19DF809200021013204E013F870
:10114000203C99445FFA89F98BB29A420AA801F1CE
:1011500001010344F3DA282F03F8209C1AD1FF2E53
:101160000CBF4FF47A720A2200940023C9B202A87D
:10117000FFF79BF90028B1D09DF80A506DB9002CFB
:10118000ACD0FFF741F89DF80A30803343EA0020E5
:101190002080A4E74FF47A72E6E701259FE700BFBD
:1011A000B23000082DE9F04F8BB0189E05460C4672
:1011B00093460021202202A89A469DF85070BDF85F
:1011C0005480BDF85890FFF726FB0EB10023338002
:1011D0003046FFF7D5F818B900200BB0BDE8F08F06
:1011E0000720FFF731F80120FFF75AF84FEA1923DB
:1011F0008DF80A304FEA18238DF80C3000238DF853
:1012000008B08DF80B908DF80D808DF80E70B9B286
:101210009AB2914231D800210A467B1D8DF80930DF
:1012200006378BB29F420AA801F1010103442BDA71
:1012300003F8202C9DF85C309DF809101E2B28BF68
:101240001E23C3EB431203EB8203DB0003319BB28B
:1012500000960022C9B202A8FFF727F90028BBD0E8
:101260009DF80A30002BB7D19DF809202270217813
:101270009AB291420DD80120AFE71AF8030002AAF2
:101280001A44D0710133C3E713F8203C1A44D2B298
:10129000C7E702AA1A449278EA540133E7E700004C
:1012A0000023F7B52C4E0C4601933060154602B171
:1012B00013800388294F03F0380301930188BC424F
:1012C00021F038014FEA01414FEA114101800388C2
:1012D00043F010030380018821F001014FEA01412E
:1012E0004FEA1141018029462FD90120FFF794F9D7
:1012F00040B33068BC42018821F038014FEA014117
:101300004FEA11410180019B028843EA02039BB22C
:1013100003801CD8FA2000F0BFFFFA2000F0BCFFC9
:10132000FA2000F0B9FFFA2000F0B6FF00212B46AA
:101330000B4A084600F03BF820B10A48FFF77CF85A
:10134000012000E0002003B0F0BD0220CEE70388BA
:1013500043F001030380DDE78C050020FF2C310101
:1013600030000020E230000813B5049CCDE90034C1
:1013700013460A4601462820FFF79AFE02B010BD28
:101380001FB504AC04F8011D01230092032122467D
:10139000FFF7F6FC04B010BD002307B51A46009114
:1013A00001460120FFF743FC03B05DF804FBF0B5F4
:1013B0001C468BB007460E4615460021202202A887
:1013C000FFF729FA0CB1002323802046FEF7D8FF4F
:1013D00010B900200BB0F0BD0720FEF735FF01204B
:1013E000FEF75EFF1F23ADF808308DF80A300023AA
:1013F00000941A46032102A8FFF757F80028E8D006
:1014000077B19DF80A309DF80B2002EB03229DF87E
:101410000C3003EB02229DF80D3003EB02233B60FE
:1014200016B19DF80E30337045B100239DF80F20A2
:1014300091B298B2884203D30023AB540120C9E78C
:1014400002A81844007AE8540133F2E730B50546A3
:101450008BB00C4609B100230B802046FEF790FFAD
:10146000B0B10720FEF7F0FE0120FEF719FF1023B0
:10147000ADF808308DF80A30002300941A46032195
:1014800002A8FFF712F818B101209DF80A302B705E
:101490000BB030BD30B50C468BB005462022002184
:1014A00002A8FFF7B8F90CB1002323802046FEF70D
:1014B00067FF10B900200BB030BD0720FEF7C4FE57
:1014C0000120FEF7EDFE1223ADF808308DF80A304A
:1014D000002300941A46032102A8FEF7E6FF002825
:1014E000E8D09DF80A3001202B70E4E730B50C46B7
:1014F0008BB005462022002102A8FFF78CF90CB121
:10150000002323802046FEF73BFF10B900200BB0DC
:1015100030BD0720FEF798FE0120FEF7C1FE112323
:10152000ADF808308DF80A30002300941A460321E4
:1015300002A8FEF7BAFF0028E8D00DF109026B1EE1
:1015400005F10E0012F8011F03F8011F09B19842BE
:10155000F8D100230120EB73D9E708B5FEF754FE5C
:10156000FF2814BFC0F30010002008BDF8B50546E1
:10157000FEF74AFEFF2817D0FEF746FEA0B1002472
:101580000A4FE65D3046FEF74FFE0A2000F084FE6B
:10159000FEF73AFE864207D10134062CF1D1012331
:1015A00005B128701846F8BD0023F9E70A31000894
:1015B0002DE9F0478AB0149F8046DDE912490E46B6
:1015C00015460021202202A89A46FFF724F90FB100
:1015D00000233B803846FEF7D3FE18B900200AB03E
:1015E000BDE8F0870720FEF72FFE0120FEF758FE2A
:1015F0004FF48A73ADF8083000238DF80A80009705
:1016000008F115081A46042102A88DF80B80FEF790
:101610004CFF0028E2D09DF80B3043B10EB10023FF
:1016200033700DB90120DAE700232B70FAE716B109
:101630009DF80C30337015B19DF80D302B70BAF158
:10164000000F07D09DF80E209DF80F3003EB02230A
:10165000AAF8003064B10DF10F02631E04F10F010E
:1016600012F8010F03F8010F8B42F9D10023E37345
:10167000B9F1000FD6D09DF821209DF8223003EB60
:101680000223A9F80030CDE71FB5069C0294002480
:10169000CDE90044FFF7D8FB04B010BD2DE9F043BD
:1016A00080468DB0CA480D4617461E46149CFEF76C
:1016B000C3FE002800F39B800DF1100920220021B9
:1016C0004846FFF7A8F80CB1002323802046FEF718
:1016D00057FE08B9002551E00720FEF7B5FD0120AF
:1016E000FEF7DEFD41F62253ADF81030002318F866
:1016F00003202AB109EB030101330D2B8A70F6D1C7
:1017000000238DF81F30EA5C2AB109EB0301013395
:101710000D2B0A74F7D100231A468DF82D308DF861
:101720002E7019F8031001330A441F2BD2B2F8D1DE
:1017300000238DF82F2000941A4620214846FEF7FA
:10174000B4FE0028C6D09DF812506DB14FF00008CD
:1017500006EB8606B04515D1002CBBD0FEF754FD34
:10176000000240F032001BE1002CB3D0FEF74CFD2C
:101770009DF81230803343EA0020208028460DB0C7
:10178000BDE8F083C827FA2000F086FDFA2000F0BB
:1017900083FD013FFA2000F07FFDBFB2FA2000F088
:1017A0007BFD002FEFD121460DF10F00FFF772FEF8
:1017B000012805460BD19DF80F30042B00F0FE8068
:1017C00008D8022B00F0E480032B00F0EE8008F133
:1017D0000108BFE7052BD1D0FF2BF8D1002C3FF437
:1017E00079AFFEF711FD000240F04C00D8E07948D7
:1017F000FEF722FE00280ADC7748FEF71DFE0028CF
:1018000005DB204600F0EAF8FA2000F045FDB8F1CB
:10181000000F3BD1002200943B461146FF20FFF70A
:10182000A3FD00283FF456AF4FF0000806EB8609F1
:10183000A9F1070906EB860646458DD0C827FA2090
:1018400000F02AFDFA2000F027FD013FFA2000F009
:1018500023FDBFB2FA2000F01FFD002FEFD121467B
:1018600004A8FFF717FE012805460CD19DF810309B
:10187000042B00F0A38000F28480022B00F088800B
:10188000032B00F08F8008F10108D5E7434608F1EB
:101890002001A3EB080213F8019BD2B2B9F1000FAB
:1018A00007D08B42F5D120221B3A5FFA82F91B2226
:1018B00001E01A2AF8D80023009441461846FFF7A1
:1018C00053FD00283FF406AFB9F1000F13D1002DEE
:1018D000A0D02B4605F140015A1B13F8018BD2B260
:1018E000B8F1000F12D09942F6D140221B3A5FFAAC
:1018F00082F81B220CE0009400234A4608F11B01E9
:101900001020FFF731FD0028E1D1E3E61A2AEDD8D7
:101910000094002329460120FFF726FD00283FF40C
:10192000D9AEB8F1000F3FF475AFB8F11A0F82BF0E
:10193000A8F11B024FF01B085FFA82F900944FF0E8
:101940000003424605F11B014FF0200098BF4FF005
:101950000009FFF709FD00283FF4BCAEB9F1000F04
:101960003FF458AF4A46092A28BF092200940023B1
:1019700005F136012120FFF7F7FC00287FF44AAF7C
:10198000A8E6052B3FF4FAAEFF2B3FF427AF7AE72A
:10199000002C3FF49FAEFEF737FC000240F04B00F6
:1019A000208097E6C1453FF76EAF002C3FF492AE22
:1019B000FEF72AFC000240F04A00F1E7002C3FF459
:1019C00089AEFEF721FC000240F04D00E8E700BFC1
:1019D000D2300008DA300008F230000830B5044692
:1019E0008BB00021202202A8FEF715FF21461848DF
:1019F000FEF74AFD18B1002528460BB030BD04B1F2
:101A000020802046FEF7BCFC0028F4D00720FEF71B
:101A10001BFC0120FEF744FC2023ADF808308DF8B4
:101A20000A30002300941A46032102A8FEF73DFD68
:101A30000028E0D09DF80A5045B9002CDBD0FEF715
:101A4000E3FB000240F04E002080D5E70125D3E7FC
:101A5000F23000082DE9F04F99B007468A46164645
:101A6000002114220BA81C46FEF7D5FE00238DF89A
:101A70001B30BAF1000F0CD124B90025284619B04B
:101A8000BDE8F08FFEF7C0FB000240F04F00208061
:101A9000F3E753460AF58072A3EB0A0813F9011B1A
:101AA0001FFA88F819B19342F6D14FF4807808F103
:101AB000FF33FE2BE0D8B8F11B0F2FD820220021D6
:101AC00010A8FEF7A8FE002C60D121468548FEF73D
:101AD000DBFC05460028D0D107AA9646824B03F1CD
:101AE00010089446186859680833ACE80300434569
:101AF0006246F6D100231AF903101EF90320914221
:101B000040F09A800133102BF5D100231EF80320FA
:101B1000FA540133102BF9D10125AFE72146734860
:101B2000FEF7B2FC0028C9D104B120804FF0000BB1
:101B3000A8EB0B09B9F1170FCCBF4FF018095FFAEA
:101B400089F9CDE90364CDE901B8CDF800900AEB3D
:101B50000B0336220DF11B010BA8FFF723FB0546F3
:101B6000002850D1002C88D0FEF74EFB9DF82C3079
:101B7000000280B2FC2B20803CD02ED89C2B3FD082
:101B800001D3FA2B39D240F03D002BE00023238013
:101B90009BE712F8202C1344DBB274E010A8184421
:101BA000C078F854002800F09A800133102B40F0E0
:101BB0009280194693E0002C3FF45FAFFEF724FBC0
:101BC0009DF84230000280B2FA3B2080052BDAD823
:101BD000DFE803F01313100D0A06FE2B04D006D91C
:101BE00040F03A00208049E740F03B00FAE740F03F
:101BF0003C00F7E740F05E00F4E740F05F00F1E7FB
:101C000040F04F00EEE7CB441FFA8BFBC3458FD368
:101C100000239DF81B009AB2904202D80023BB54C7
:101C20007AE70BA919444978F9540029F6D0013311
:101C3000102BF0D11A46F1E72046FEF7A1FB002851
:101C40003FF41BAF0720FEF7FFFA0120FEF728FB49
:101C500025238DF8403000238DF842601AF90310D7
:101C600010A818449AB2C17019B101331B2BF5D1D9
:101C70001A46D01C18AB1918002301F8203C19464D
:101C800002328DF841208AB290420DF1600C01F1D0
:101C900001016244BFF67DAF1E2E28BF1E2602F84A
:101CA000203C9DF84110C6EB461306EB8303DB0096
:101CB00003319BB200940022C9B210A8FEF7F5FBD5
:101CC00000283FF4DAAE9DF84230002B7FF473AF6A
:101CD0009DF84120023A934299B2FFF65FAF00238C
:101CE0007B5419E7AA300008C2300008FA30000817
:101CF00070B514468AB005460E462022002102A87F
:101D0000FEF789FD0CB1002323802046FEF738FB47
:101D100010B900200AB070BD0720FEF795FA012027
:101D2000FEF7BEFA1323ADF808308DF80A30002311
:101D300000941A46032102A8FEF7B7FB0028E8D05A
:101D40009DF80920002AE4D09DF80A30023A337049
:101D500000239A4299B203DC002301206B54D9E797
:101D600002A81844C078E8540028F5D001331B2B92
:101D7000EFD11946F0E770B505468AB00E46144615
:101D80000AB1002313802046FEF7FAFA60B3072059
:101D9000FEF75AFA0120FEF783FA40F21523ADF858
:101DA000083000238DF80B6017368DF80A50009428
:101DB00035441A46052102A88DF80C50FEF775FB34
:101DC00090B11424FA2000F067FAFA2000F064FAC7
:101DD000013CFA2000F060FAA4B2FA2000F05CFAAC
:101DE000002CEFD19DF80A000AB070BD2DE9F04F2C
:101DF00095B00DF1200806468A4693460021102230
:101E0000404605939DF878909DF87C70209CFEF7E5
:101E100002FD0023ADF81E3004B12380214678482E
:101E2000FEF732FB40B1022E06D9FEF7EDF90002B3
:101E300040F07700208012E021467248FEF724FB34
:101E4000A0B90DF11E014846FFF7A6FA054668B98C
:101E5000BDF81E20D3B2553B012B07D80CB9002585
:101E600000E02280284615B0BDE8F08F6648FEF7F6
:101E7000E3FA00285CDA00231BF903109AB208F891
:101E8000031019B10133102BF6D11A4614AB1A44C2
:101E9000002302F8303C2046FEF772FA0028DED01C
:101EA0000720FEF7D1F90120FEF7FAF941F2186395
:101EB0000022ADF830304FEA1A238DF832608DF8E9
:101EC00033308DF834A00CA818F9021093B2002911
:101ED00037D1002105339BB29AB2142A38D9002297
:101EE000059B8DF847901B0A8DF84530059B8DF8B2
:101EF00046301346815C01320B44182ADBB2F9D11B
:101F00008DF848300094002305221921FEF7CDFA00
:101F10000028A4D09DF83250EDB1002C9FD0FEF7E0
:101F200073F99DF83230C3F1800343EA002081E762
:101F300023463A4659464046FFF78CFD0028AAD171
:101F40008DE783180132102A5971BDD11346C0E7BD
:101F5000C1540133C0E716F0FD0F4FD006F00F0655
:101F6000012E7FF47CAFA846AA4607EB87074745BA
:101F70003BD0C8268DF81DA0FA2000F08DF9FA207C
:101F800000F08AF9FA2000F087F9FA2000F084F9CD
:101F9000013EF1D1CDE90164009633460DF11D02F9
:101FA00031464846FFF704FBE0B19DF81D30062B93
:101FB00018D8DFE803F00417232323230E00002C96
:101FC0003FF450AFFEF720F9000240F033002080CC
:101FD00048E7002C3FF446AFFEF716F9000240F048
:101FE0003900F4E708F10108C1E7002C3FF437AFEE
:101FF000FEF70AF9000240F03400E8E7012531E776
:1020000002310008F2300008AA300008FEE77047ED
:10201000F0B5CA78002502F00F03D20601D58A7800
:1020200013430A784FF00F0E12F0FF0F4FF001022A
:102030001CD004680F8802FA05F63740B74211D168
:102040004FEA850C0EFA0CF724EA070703FA0CF4A2
:102050003C43CF78282F02D0482F02D002E04661BF
:1020600000E006616D1C082DE4D304600C88FF2C91
:102070001ED944685FF0000606F1080702FA07F56A
:102080000F882F40AF420FD14FEA860C0EFA0CF7A3
:10209000BC4303FA0CF73C43CF78282F00D14561AD
:1020A000CF78482F00D10561761C082EE4D3446018
:1020B000F0BD4161704701617047FEE708B501213D
:1020C000442000F0BDFC1C20ADF8000048208DF835
:1020D000030069460648FFF79BFF0120ADF80000AA
:1020E00028208DF8030069460248FFF791FF08BDDC
:1020F000001801400008014038B50121482000F0D7
:102100009FFC2024ADF8004010208DF80300032030
:102110000B4D8DF8020069462846FFF779FF202114
:102120002846FFF7C8FFADF80040064C6946204638
:10213000FFF76EFF20212046FFF7BDFF38BD0000EE
:10214000000C01400018014030B1054800294FF053
:10215000200103D0FFF7ADBF0248F7E7FFF7ABBFA1
:1021600000180140000C0140F8B50121042000F0E6
:1021700067FC104D10242C600E4FADF800408DF818
:1021800003400326103F8DF8026069463846FFF78A
:102190003FFF0121042000F053FC02202860ADF82D
:1021A00000008DF803408DF8026069463846FFF75D
:1021B0002FFFF8BD1008014010B5FFF7D5FFBDE8AF
:1021C000104000F001B8000030B587B001210420B4
:1021D00000F036FCE020ADF8140018248DF817400C
:1021E00003208DF8160005A91848FFF711FF0121FB
:1021F0000D03284600F024FC0121284600F02CFCA9
:102200000021284600F028FC0020ADF80000ADF8C1
:102210000800ADF80C404FF48271ADF80400ADF841
:102220000210ADF80600ADF80E00E9100720084CCA
:10223000ADF80A10ADF810006946204600F06AFCBF
:102240000121204600F05CFC07B030BD00080140D1
:102250000030014001460548028822F03802028021
:1022600002880A430280012100F04ABC003001408C
:10227000102108B1024801E00148001D01607047CB
:1022800010080140022108B1024801E00148001D88
:10229000016070471008014000F014BE10B5002026
:1022A000FFF7E6FF012000F0D5F80020FFF7EAFF76
:1022B000052000F0CFF80120FFF7E4FF4FF49670FF
:1022C00000F0C8F80120FFF7D3FFBDE8104040F24E
:1022D000ED1000F0BFB8000010B594B00020FF2151
:1022E0008DF808008DF8401003900490059006903A
:1022F000ADF81C00FFF7D2FF0820FFF7ABFF4B4CF7
:10230000012000F0A7F807AA21464948FEF7C8FFB8
:1023100048B312A8FFF72AF94FF4FA74D0B345482E
:102320000090FEF7C7F90099019088424AD208460A
:102330000199401A052845D900210846FFF704FFF6
:1023400000210120FFF700FF204600F083F8012163
:102350000020FFF7F9FE01210846FFF7F5FE2046B1
:1023600000F078F8E8E700210846FFF7EDFE0021CD
:102370000120FFF7E9FEFA2000F06CF801210020AF
:10238000FFF7E2FE01210846FFF7DEFEFA2000F02B
:1023900061F8E8E7FFE700210846FFF7D5FE0021D6
:1023A0000120FFF7D1FE204600F054F80121002063
:1023B000FFF7CAFE01210846FFF7C6FE204600F0DF
:1023C00049F8E8E707AA00210120FFF7D4FC00281C
:1023D00029D007A902A8FFF739F8002823D09DF8D3
:1023E0000800012801D003281CD107A8009014235D
:1023F000002211A113A0FFF751F9002813D00A21E0
:1024000003A800F039F800280DD007A910A8FFF79D
:1024100041F8002807D007AA11A908A8FFF768FC0F
:10242000002800D0012014B010BD000080A81201C7
:1024300000300140A0860100313233343536373860
:10244000000000003132312D315F57692D4669356A
:102450000000000070B50646002509E00024FA20BF
:10246000FFF71AFF641CA4B2042CF8D36D1CADB2A4
:10247000B542F3D370BD0000F8B5074600200D4605
:10248000ADF8000004464FF47A760FE0694638460E
:10249000FFF72CF8012804D108A13846FEF7C4F94B
:1024A00030B93046FFF7D6FF641CA4B2AC42EDD37E
:1024B000AC4201D30020F8BD0120F8BD302E302EF3
:1024C000302E3000ADF57C7D0020ADF8E8038DF8AE
:1024D000EC03044600210846FFF736FE01210846BA
:1024E000FFF732FE6420FFF7B5FF01210020FFF760
:1024F0002BFE00210120FFF727FE6420FFF7AAFF33
:1025000000210846FFF720FE01210846FFF71CFEC8
:102510006420FFF79FFF01210020FFF715FE002137
:102520000120FFF711FE6420FFF794FF641CA4B2A2
:10253000032CCFD301210020FFF706FE012108461E
:10254000FFF702FEFAAA04219DF8EC03FEF718FF3C
:10255000002876D014209DF8EC13CDE90010FAAFD6
:1025600042F2ED2357A2029700210120FFF73EFC23
:1025700000287ED000210120FFF7E6FD3220FFF782
:1025800069FF01210846FFF7DFFD3220FFF762FFF8
:1025900000210120FFF7D8FD3220FFF75BFF01216A
:1025A0000846FFF7D1FD3220FFF754FF002101203C
:1025B000FFF7CAFD3220FFF74DFF01210846FFF764
:1025C000C3FD3220FFF746FF00210120FFF7BCFDCD
:1025D0003220FFF73FFF01210846FFF7B5FD32200B
:1025E000FFF738FF4FF4797101A8FEF712F90024C4
:1025F0002546FAAB9DF8EC234FF4806101A8FEF765
:102600008CF8DFF8D08041F2883940F2E13A00BF1F
:10261000FEF7A3FF0028FBD001A800F098FAFBAB5F
:102620004A46514601A80097FFF72EF80646BDF826
:10263000E80310F0FF0F36D0C0B2222830D032E0CD
:10264000FFE700210846FFF77FFD00210120FFF78B
:102650007BFD6420FFF7FEFE01210020FFF774FDE3
:1026600001210846FFF770FD6420FFF7F3FEE8E75D
:10267000FFE700210846FFF767FD00210120FFF773
:1026800063FD6420FFF7E6FE01210020FFF75CFDFB
:1026900001210846FFF758FD6420FFF7DBFEE8E75D
:1026A000FA20FFF7F9FD34444646B442B0D305F0B2
:1026B00001010020FFF748FDB4FBF6F006FB1044D3
:1026C0006D1CA5E73139322E3136382E332E373591
:1026D0000000000000DC0500FEE7704770B50F2326
:1026E000C47801780122F4B1144C2468457804F4CC
:1026F000E064C4F5E064240AC4F10406E34084788D
:10270000B5401C402C4301F1E021230181F8003445
:10271000007800F01F018A404009800000F1E020AD
:10272000C0F8002170BD01F01F0082404809800000
:1027300000F1E020C0F8802170BD00000CED00E049
:102740000249084302490860704700000000FA058A
:102750000CED00E030B40021084B0A465FF00000A9
:1027600003EBC004401CC0B262548028F8D3491C5B
:10277000C9B20829F2D330BC00F0E4B80C01002043
:1027800030B1012807D100215FF0A70000F016B991
:102790000021A620FAE7704710B558B1012810D1E2
:1027A0000021C02000F00AF90021A020BDE810405F
:1027B00000F004B90021C82000F000F90021A12098
:1027C000F4E710BDF8B501214FF4B07000F038F90E
:1027D0004FF48056ADF800601024574F8DF8034039
:1027E00003258DF8025069463846FFF711FC314643
:1027F0003846FFF760FC48F23206ADF800604F4FF4
:102800008DF803408DF8025069463846FFF700FC0A
:1028100031463846FFF74FFC4FF4A066ADF8006034
:102820008DF80340464C8DF8025069462046FFF76C
:10283000EFFB31462046FFF73EFC10213846FFF7FC
:1028400038FCC82000F024FB10213846FFF733FC89
:102850000021AE2000F0B2F80021084600F0AEF8EA
:102860000021102000F0AAF80021402000F0A6F876
:102870000021812000F0A2F80021CF2000F09EF876
:102880000021A12000F09AF80021C82000F096F85D
:102890000021A62000F092F80021A82000F08EF878
:1028A00000213F2000F08AF80021D32000F086F8B4
:1028B0000021084600F082F80021D52000F07EF8C3
:1028C0000021802000F07AF80021D92000F076F86D
:1028D0000021F12000F072F80021DA2000F06EF8FB
:1028E0000021122000F06AF80021DB2000F066F8D9
:1028F0000021402000F062F80021202000F05EF866
:102900000021022000F05AF800218D2000F056F836
:102910000021142000F052F80021A42000F04EF80D
:102920000021A62000F04AF80021AF2000F046F870
:10293000FFF710FFF8BD0000002001400014014027
:102940000018014070B5114E002400BF04F1B00022
:10295000C0B2002100F032F80021084600F02EF845
:102960000021102000F02AF85FF0000506EBC500FA
:102970000121005D00F022F86D1CEDB2802DF5D331
:10298000641CE4B2082CE1D370BD00000C010020EF
:1029900010B50446B031C8B2002100F00FF8102085
:1029A00040EA1410002100F009F804F00F00BDE81F
:1029B000104040F001000021AFF300802DE9F04706
:1029C0001C4E05464FF4004900294946304602D0C6
:1029D000FFF771FB01E0FFF76CFB02213046FFF7C8
:1029E00068FBB046144F00244FF4805631463846F9
:1029F000FFF75FFB28064FF02001404602D5FFF7A6
:102A00005AFB01E0FFF755FB31463846FFF753FB11
:102A10006806641C050EE4B2082CE7D30221444684
:102A20004046FFF748FB49462046BDE8F047FFF720
:102A300042BB00000014014000200140704700002C
:102A4000044A0029916901D0014300E0814391616A
:102A50007047000000100240044A0029D16801D0EC
:102A6000014300E08143D160704700000010024044
:102A700030B51F494A6812F00C031E4A03D0042BDC
:102A800001D0082B21D002604A680F231A4C03EAB8
:102A90001212A35C0268DA4042604B68072505EA1F
:102AA0001323E35C22FA03F383604B6805EAD32324
:102AB000E35CDA40C2604968032303EA9131231FD3
:102AC000595CB2FBF1F1016130BD4A684B6802F418
:102AD00070124FF0020413F4803F04EB924202D0D4
:102AE0004B689B0301D5054B00E0024B5A43CAE7F4
:102AF0000010024000127A000400002000093D008E
:102B00000029018802D041F0400101E021F040019C
:102B10000180704730B502884C8802F441530A881E
:102B2000CD8822438C882C4322430C8922434C8934
:102B300022438C892243CC8922431A430280828B10
:102B400022F400628283098A018230BD70472DE938
:102B5000F04100260746344621460020FFF718FFC3
:102B60000025B85D761CB6B20121FFF727FF6D1C6A
:102B7000EDB2802DF5D3641CE4B2082CECD3BDE893
:102B8000F08100000CB500212648019100910268F7
:102B900042F4803202604FF4A063026802F4003213
:102BA0000092019A521C0192009A12B9019A9A421B
:102BB000F3D10268920333D5012100911A490A68C2
:102BC00042F010020A600A6822F003020A600A68F2
:102BD00042F002020A604168416041684160416818
:102BE00041F480614160416821F47C114160416899
:102BF00041F4E8114160016841F0807101600168B1
:102C00008901FCD5416821F003014160416841F030
:102C1000020141604168C1F381010229FAD10CBD72
:102C200000910CBD00100240002002404FF0E02156
:102C30000428086903D020F004000861704740F0C0
:102C40000400FAE7704700000F4810B5016841F032
:102C50000101016041680D4A1140416001680C4A60
:102C600011400160016821F480210160416821F474
:102C7000FE0141604FF41F018160FFF783FF0549AA
:102C80004FF00060086010BD001002400000FFF827
:102C9000FFFFF6FE08ED00E070B5154C40F225513F
:102CA000204600F035F800280ED0204600F0BEF88F
:102CB000C2B2104801880B0406D44C044FF0000344
:102CC00006D50A2A01D0038070BD41F400410DE011
:102CD0000D2A09D0C1F30D04074D491C89B22A55AC
:102CE0000180C729EFD870BD41F48041018070BDDB
:102CF000003801401800002044000020002981898C
:102D000002D041F4005101E021F40051818170476B
:102D100030B501F01F0201240025C1F3421304FA6B
:102D200002F2012B0FD0022B0FD0838A4FEA112120
:102D30000088134204FA01F400EA040001D000B153
:102D40000125284630BD8389F0E7038AEEE710B5F8
:102D5000C1F3421301F01F040121A140012B07D050
:102D6000022B07D01430002A026805D00A4304E081
:102D70000C30F8E71030F6E78A43026010BD00001F
:102D800030B50446008A85B00D464CF6FF71084008
:102D9000E98801432182A1894EF6F3100140A888F9
:102DA0002A8910436A890A431043A081A08A4FF6FA
:102DB000FF410840A9890143A1826846FFF758FEF8
:102DC0001948844201D1039800E00298A1890904BE
:102DD00000EBC00101EB0010296801D5490000E0BB
:102DE0008900B0FBF1F06422B0FBF2F109010B099C
:102DF0006FF018056B4300EB8300A3891D044FF0AF
:102E0000320306D503EBC000B0FBF2F000F0070080
:102E100005E003EB0010B0FBF2F000F00F000843F8
:102E2000208105B030BD0000003801408088C0F32B
:102E300008007047FEE702E008C8121F08C1002A18
:102E4000FAD170477047002001E001C1121F002A2B
:102E5000FBD1704710B56FF00400FFF7E7FE09489B
:102E600009490068B0FBF1F0C1B2084801EB41022A
:102E70000170C2EBC1114FF6FF7202EAC10141803D
:102E800010BD00001C00002000127A001400002079
:102E90000B49498848434FF0E021486100228A618C
:102EA000086940F0010008610869C30701D0C00348
:102EB000FAD5086920F0010008618A6170470000B6
:102EC000140000200B49097848434FF0E021486185
:102ED00000228A61086940F0010008610869C3079F
:102EE00001D0C003FAD5086920F0010008618A61A9
:102EF00070470000140000204FF4A060FFF720FC92
:102F0000FFF7A8FFFFF75EFC4FF4E13000F06CF82C
:102F10000020FFF735FC0020FFF73EFCFFF71AFC0E
:102F2000FFF7EAF8FFF7CAF8FFF746F90024002197
:102F30000846FFF709F900210120FFF705F93220C3
:102F4000FFF788FA01210020FFF7FEF8012108466B
:102F5000FFF7FAF83220FFF77DFA641CE4B2052C83
:102F6000E5D3FFF7B9F928B3002401210020FFF7CA
:102F7000EBF800210120FFF7E7F86420FFF76AFA79
:102F800000210846FFF7E0F801210846FFF7DCF8CA
:102F90006420FFF75FFA641CE4B2032CE5D301213F
:102FA0000020FFF7D1F801210846FFF7CDF8FFF721
:102FB00089FAFEE74FF4FA6401210020FFF7C4F814
:102FC00001210846FFF7C0F82046FFF743FA002129
:102FD0000846FFF7B9F800210120FFF7B5F82046B1
:102FE000FFF738FAE8E7000070B5054686B0012122
:102FF00044F20400FFF724FD4FF40070ADF8100018
:1030000003248DF8124018201D4E8DF8130004A9DA
:103010003046FEF7FDFF3015ADF8100004208DF8A6
:10302000130004A93046FEF7F3FF25208DF81400A5
:103030008DF815408DF8164001208DF8170005A871
:10304000FFF74CFB0020ADF80400ADF80600ADF82A
:103050000800ADF80C000C200A4CADF80A000095F1
:1030600069462046FFF78CFE012240F2255120469A
:10307000FFF76DFE01212046FFF740FE06B070BD50
:10308000000801400038014056312E312E382D4CB9
:10309000000053544D333246310000000000000060
:1030A0000000312E312E382D3100312E312E362DAB
:1030B0003300312E312E362D3400312E312E362D67
:1030C00035003235352E3235352E3235352E323506
:1030D0003500312E312E362D3700312E312E382D40
:1030E0003800312E312E362D4500312E312E362D21
:1030F0004600312E312E362D4E00312E312E382DF8
:103100005200312E312E382D580041494B5BDB41A6
:10311000303100080000002044000000362E000876
:10312000743100084400002054250000462E000899
:103130000204060800000000010203040102030467
:1031400006070809000000000000000000A24A0471
:103150000000000000000000010203040607080947
:10316000312E312E312D3100000000000000000012
:04317000000000005B
:0400000508000131BD
:00000001FF
